{
  "contractName": "Voter",
  "abi": [
    {
      "inputs": [
        {
          "internalType": "string[]",
          "name": "_options",
          "type": "string[]"
        }
      ],
      "stateMutability": "nonpayable",
      "type": "constructor"
    },
    {
      "inputs": [
        {
          "internalType": "uint256",
          "name": "",
          "type": "uint256"
        }
      ],
      "name": "options",
      "outputs": [
        {
          "internalType": "string",
          "name": "",
          "type": "string"
        }
      ],
      "stateMutability": "view",
      "type": "function",
      "constant": true
    },
    {
      "inputs": [
        {
          "internalType": "uint256",
          "name": "",
          "type": "uint256"
        }
      ],
      "name": "votes",
      "outputs": [
        {
          "internalType": "uint256",
          "name": "",
          "type": "uint256"
        }
      ],
      "stateMutability": "view",
      "type": "function",
      "constant": true
    },
    {
      "inputs": [
        {
          "internalType": "uint256",
          "name": "option",
          "type": "uint256"
        }
      ],
      "name": "vote",
      "outputs": [],
      "stateMutability": "nonpayable",
      "type": "function"
    },
    {
      "inputs": [
        {
          "internalType": "string",
          "name": "option",
          "type": "string"
        }
      ],
      "name": "vote",
      "outputs": [],
      "stateMutability": "nonpayable",
      "type": "function"
    },
    {
      "inputs": [],
      "name": "getOptions",
      "outputs": [
        {
          "internalType": "string[]",
          "name": "",
          "type": "string[]"
        }
      ],
      "stateMutability": "view",
      "type": "function",
      "constant": true
    },
    {
      "inputs": [],
      "name": "getVotes",
      "outputs": [
        {
          "internalType": "uint256[]",
          "name": "",
          "type": "uint256[]"
        }
      ],
      "stateMutability": "view",
      "type": "function",
      "constant": true
    }
  ],
  "bytecode": "0x60806040523480156200001157600080fd5b506040516200157a3803806200157a8339818101604052810190620000379190620005d9565b80600190805190602001906200004f92919062000169565b50805167ffffffffffffffff8111156200006e576200006d6200036a565b5b6040519080825280602002602001820160405280156200009d5781602001602082028036833780820191505090505b5060009080519060200190620000b5929190620001d0565b5060005b8151811015620001615760006040518060400160405280838152602001600115158152509050806003848481518110620000f857620000f76200062a565b5b60200260200101516040516200010f9190620006a6565b90815260200160405180910390206000820151816000015560208201518160010160006101000a81548160ff0219169083151502179055509050505080806200015890620006f8565b915050620000b9565b5050620007a9565b828054828255906000526020600020908101928215620001bd579160200282015b82811115620001bc578251829080519060200190620001ab92919062000222565b50916020019190600101906200018a565b5b509050620001cc9190620002b3565b5090565b8280548282559060005260206000209081019282156200020f579160200282015b828111156200020e578251825591602001919060010190620001f1565b5b5090506200021e9190620002db565b5090565b828054620002309062000774565b90600052602060002090601f016020900481019282620002545760008555620002a0565b82601f106200026f57805160ff1916838001178555620002a0565b82800160010185558215620002a0579182015b828111156200029f57825182559160200191906001019062000282565b5b509050620002af9190620002db565b5090565b5b80821115620002d75760008181620002cd9190620002fa565b50600101620002b4565b5090565b5b80821115620002f6576000816000905550600101620002dc565b5090565b508054620003089062000774565b6000825580601f106200031c57506200033d565b601f0160209004906000526020600020908101906200033c9190620002db565b5b50565b6000604051905090565b600080fd5b600080fd5b600080fd5b6000601f19601f8301169050919050565b7f4e487b7100000000000000000000000000000000000000000000000000000000600052604160045260246000fd5b620003a48262000359565b810181811067ffffffffffffffff82111715620003c657620003c56200036a565b5b80604052505050565b6000620003db62000340565b9050620003e9828262000399565b919050565b600067ffffffffffffffff8211156200040c576200040b6200036a565b5b602082029050602081019050919050565b600080fd5b600080fd5b600067ffffffffffffffff8211156200044557620004446200036a565b5b620004508262000359565b9050602081019050919050565b60005b838110156200047d57808201518184015260208101905062000460565b838111156200048d576000848401525b50505050565b6000620004aa620004a48462000427565b620003cf565b905082815260208101848484011115620004c957620004c862000422565b5b620004d68482856200045d565b509392505050565b600082601f830112620004f657620004f562000354565b5b81516200050884826020860162000493565b91505092915050565b6000620005286200052284620003ee565b620003cf565b905080838252602082019050602084028301858111156200054e576200054d6200041d565b5b835b818110156200059c57805167ffffffffffffffff81111562000577576200057662000354565b5b808601620005868982620004de565b8552602085019450505060208101905062000550565b5050509392505050565b600082601f830112620005be57620005bd62000354565b5b8151620005d084826020860162000511565b91505092915050565b600060208284031215620005f257620005f16200034a565b5b600082015167ffffffffffffffff8111156200061357620006126200034f565b5b6200062184828501620005a6565b91505092915050565b7f4e487b7100000000000000000000000000000000000000000000000000000000600052603260045260246000fd5b600081519050919050565b600081905092915050565b60006200067c8262000659565b62000688818562000664565b93506200069a8185602086016200045d565b80840191505092915050565b6000620006b482846200066f565b915081905092915050565b7f4e487b7100000000000000000000000000000000000000000000000000000000600052601160045260246000fd5b6000819050919050565b60006200070582620006ee565b91507fffffffffffffffffffffffffffffffffffffffffffffffffffffffffffffffff82036200073a5762000739620006bf565b5b600182019050919050565b7f4e487b7100000000000000000000000000000000000000000000000000000000600052602260045260246000fd5b600060028204905060018216806200078d57607f821691505b602082108103620007a357620007a262000745565b5b50919050565b610dc180620007b96000396000f3fe608060405234801561001057600080fd5b50600436106100625760003560e01c80630121b93f146100675780630dc9601514610083578063409e2205146100a15780635df81330146100d1578063cc2ee19614610101578063fc36e15b1461011f575b600080fd5b610081600480360381019061007c9190610642565b61013b565b005b61008b61021b565b604051610098919061072d565b60405180910390f35b6100bb60048036038101906100b69190610642565b610273565b6040516100c891906107e8565b60405180910390f35b6100eb60048036038101906100e69190610642565b61031f565b6040516100f89190610819565b60405180910390f35b610109610343565b6040516101169190610940565b60405180910390f35b61013960048036038101906101349190610a97565b61041c565b005b6001805490508110610182576040517f08c379a000000000000000000000000000000000000000000000000000000000815260040161017990610b2c565b60405180910390fd5b600260003373ffffffffffffffffffffffffffffffffffffffff1673ffffffffffffffffffffffffffffffffffffffff16815260200190815260200160002060009054906101000a900460ff161561020f576040517f08c379a000000000000000000000000000000000000000000000000000000000815260040161020690610b98565b60405180910390fd5b61021881610550565b50565b6060600080548060200260200160405190810160405280929190818152602001828054801561026957602002820191906000526020600020905b815481526020019060010190808311610255575b5050505050905090565b6001818154811061028357600080fd5b90600052602060002001600091509050805461029e90610be7565b80601f01602080910402602001604051908101604052809291908181526020018280546102ca90610be7565b80156103175780601f106102ec57610100808354040283529160200191610317565b820191906000526020600020905b8154815290600101906020018083116102fa57829003601f168201915b505050505081565b6000818154811061032f57600080fd5b906000526020600020016000915090505481565b60606001805480602002602001604051908101604052809291908181526020016000905b8282101561041357838290600052602060002001805461038690610be7565b80601f01602080910402602001604051908101604052809291908181526020018280546103b290610be7565b80156103ff5780601f106103d4576101008083540402835291602001916103ff565b820191906000526020600020905b8154815290600101906020018083116103e257829003601f168201915b505050505081526020019060010190610367565b50505050905090565b600260003373ffffffffffffffffffffffffffffffffffffffff1673ffffffffffffffffffffffffffffffffffffffff16815260200190815260200160002060009054906101000a900460ff16156104a9576040517f08c379a00000000000000000000000000000000000000000000000000000000081526004016104a090610b98565b60405180910390fd5b60006003826040516104bb9190610c54565b9081526020016040518091039020604051806040016040529081600082015481526020016001820160009054906101000a900460ff1615151515815250509050806020015161053f576040517f08c379a000000000000000000000000000000000000000000000000000000000815260040161053690610cb7565b60405180910390fd5b61054c8160000151610550565b5050565b6001600260003373ffffffffffffffffffffffffffffffffffffffff1673ffffffffffffffffffffffffffffffffffffffff16815260200190815260200160002060006101000a81548160ff0219169083151502179055506001600082815481106105be576105bd610cd7565b5b90600052602060002001546105d39190610d35565b600082815481106105e7576105e6610cd7565b5b906000526020600020018190555050565b6000604051905090565b600080fd5b600080fd5b6000819050919050565b61061f8161060c565b811461062a57600080fd5b50565b60008135905061063c81610616565b92915050565b60006020828403121561065857610657610602565b5b60006106668482850161062d565b91505092915050565b600081519050919050565b600082825260208201905092915050565b6000819050602082019050919050565b6106a48161060c565b82525050565b60006106b6838361069b565b60208301905092915050565b6000602082019050919050565b60006106da8261066f565b6106e4818561067a565b93506106ef8361068b565b8060005b8381101561072057815161070788826106aa565b9750610712836106c2565b9250506001810190506106f3565b5085935050505092915050565b6000602082019050818103600083015261074781846106cf565b905092915050565b600081519050919050565b600082825260208201905092915050565b60005b8381101561078957808201518184015260208101905061076e565b83811115610798576000848401525b50505050565b6000601f19601f8301169050919050565b60006107ba8261074f565b6107c4818561075a565b93506107d481856020860161076b565b6107dd8161079e565b840191505092915050565b6000602082019050818103600083015261080281846107af565b905092915050565b6108138161060c565b82525050565b600060208201905061082e600083018461080a565b92915050565b600081519050919050565b600082825260208201905092915050565b6000819050602082019050919050565b600082825260208201905092915050565b600061087c8261074f565b6108868185610860565b935061089681856020860161076b565b61089f8161079e565b840191505092915050565b60006108b68383610871565b905092915050565b6000602082019050919050565b60006108d682610834565b6108e0818561083f565b9350836020820285016108f285610850565b8060005b8581101561092e578484038952815161090f85826108aa565b945061091a836108be565b925060208a019950506001810190506108f6565b50829750879550505050505092915050565b6000602082019050818103600083015261095a81846108cb565b905092915050565b600080fd5b600080fd5b7f4e487b7100000000000000000000000000000000000000000000000000000000600052604160045260246000fd5b6109a48261079e565b810181811067ffffffffffffffff821117156109c3576109c261096c565b5b80604052505050565b60006109d66105f8565b90506109e2828261099b565b919050565b600067ffffffffffffffff821115610a0257610a0161096c565b5b610a0b8261079e565b9050602081019050919050565b82818337600083830152505050565b6000610a3a610a35846109e7565b6109cc565b905082815260208101848484011115610a5657610a55610967565b5b610a61848285610a18565b509392505050565b600082601f830112610a7e57610a7d610962565b5b8135610a8e848260208601610a27565b91505092915050565b600060208284031215610aad57610aac610602565b5b600082013567ffffffffffffffff811115610acb57610aca610607565b5b610ad784828501610a69565b91505092915050565b7f496e76616c6964206f7074696f6e000000000000000000000000000000000000600082015250565b6000610b16600e8361075a565b9150610b2182610ae0565b602082019050919050565b60006020820190508181036000830152610b4581610b09565b9050919050565b7f416c726561647920766f74656400000000000000000000000000000000000000600082015250565b6000610b82600d8361075a565b9150610b8d82610b4c565b602082019050919050565b60006020820190508181036000830152610bb181610b75565b9050919050565b7f4e487b7100000000000000000000000000000000000000000000000000000000600052602260045260246000fd5b60006002820490506001821680610bff57607f821691505b602082108103610c1257610c11610bb8565b5b50919050565b600081905092915050565b6000610c2e8261074f565b610c388185610c18565b9350610c4881856020860161076b565b80840191505092915050565b6000610c608284610c23565b915081905092915050565b7f496e76616c6964204f7074696f6e000000000000000000000000000000000000600082015250565b6000610ca1600e8361075a565b9150610cac82610c6b565b602082019050919050565b60006020820190508181036000830152610cd081610c94565b9050919050565b7f4e487b7100000000000000000000000000000000000000000000000000000000600052603260045260246000fd5b7f4e487b7100000000000000000000000000000000000000000000000000000000600052601160045260246000fd5b6000610d408261060c565b9150610d4b8361060c565b9250827fffffffffffffffffffffffffffffffffffffffffffffffffffffffffffffffff03821115610d8057610d7f610d06565b5b82820190509291505056fea2646970667358221220bbc04bf90ff0e94bf3d7b36bf42931a7c3630eb919f7c55320deb942939ccd8264736f6c634300080e0033",
  "immutableReferences": {},
  "source": "// SPDX-License-Identifier: MIT\npragma solidity ^0.8.13;\n\ncontract Voter {\n    struct OptionPos {\n        uint pos;\n        bool exists;\n    }\n\n    uint[] public votes;\n    string[] public options;\n    mapping(address => bool) hasVoted;\n    mapping(string => OptionPos) posOfOption;\n\n    constructor(string[] memory _options) {\n        options = _options;\n        votes = new uint[](_options.length);\n\n        for (uint i = 0; i < _options.length; i++) {\n            OptionPos memory option = OptionPos(i, true);\n            posOfOption[_options[i]] = option;\n        }\n    }\n\n    function vote(uint option) public {\n        require(option < options.length, \"Invalid option\");\n        require(!hasVoted[msg.sender], \"Already voted\");\n\n        recordVote(option);\n    }\n\n    function vote(string memory option) public {\n        require(!hasVoted[msg.sender], \"Already voted\");\n\n        OptionPos memory optionPos = posOfOption[option];\n        require(optionPos.exists, \"Invalid Option\");\n\n        recordVote(optionPos.pos);\n    }\n\n    function stringEqual(\n        string memory a,\n        string memory b\n    ) private pure returns (bool) {\n        return keccak256(bytes(a)) == keccak256(bytes(b));\n    }\n\n    function recordVote(uint option) private {\n        hasVoted[msg.sender] = true;\n        votes[option] = votes[option] + 1;\n    }\n\n    function getOptions() public view returns (string[] memory) {\n        return options;\n    }\n\n    function getVotes() public view returns (uint[] memory) {\n        return votes;\n    }\n}\n",
  "sourcePath": "/Users/thuongtothanh/work/BE/learn-solidity/TruffleProject/contracts/Voter.sol",
  "compiler": {
    "name": "solc",
    "version": "0.8.14+commit.80d49f37.Emscripten.clang"
  },
  "schemaVersion": "3.4.14",
  "updatedAt": "2023-07-03T04:27:47.814Z",
  "networkType": "ethereum",
  "devdoc": {
    "kind": "dev",
    "methods": {},
    "version": 1
  },
  "userdoc": {
    "kind": "user",
    "methods": {},
    "version": 1
  }
}